{
  "contractName": "CoinFlip",
  "abi": [
    {
      "inputs": [],
      "stateMutability": "nonpayable",
      "type": "constructor"
    },
    {
      "inputs": [],
      "name": "consecutiveWins",
      "outputs": [
        {
          "internalType": "uint256",
          "name": "",
          "type": "uint256"
        }
      ],
      "stateMutability": "view",
      "type": "function",
      "constant": true
    },
    {
      "inputs": [],
      "name": "getAddress",
      "outputs": [
        {
          "internalType": "address",
          "name": "",
          "type": "address"
        }
      ],
      "stateMutability": "view",
      "type": "function",
      "constant": true
    },
    {
      "inputs": [
        {
          "internalType": "bool",
          "name": "_guess",
          "type": "bool"
        }
      ],
      "name": "flip",
      "outputs": [
        {
          "internalType": "bool",
          "name": "",
          "type": "bool"
        }
      ],
      "stateMutability": "nonpayable",
      "type": "function"
    }
  ],
  "bytecode": "0x60806040527f800000000000000000000000000000000000000000000000000000000000000060025534801561003457600080fd5b50600080819055506103e48061004b6000396000f3fe608060405234801561001057600080fd5b50600436106100415760003560e01c80631d263f671461004657806338cc48311461008e578063e6f334d7146100d8575b600080fd5b6100746004803603602081101561005c57600080fd5b810190808035151590602001909291905050506100f6565b604051808215151515815260200191505060405180910390f35b610096610186565b604051808273ffffffffffffffffffffffffffffffffffffffff1673ffffffffffffffffffffffffffffffffffffffff16815260200191505060405180910390f35b6100e061018e565b6040518082815260200191505060405180910390f35b60008061010d60014361019490919063ffffffff16565b4060001c9050806001819055506000610131600254836101de90919063ffffffff16565b9050600060018214610144576000610147565b60015b9050841515811515141561017257600080815480929190600101919050555060019350505050610181565b60008081905550600093505050505b919050565b600030905090565b60005481565b60006101d683836040518060400160405280601e81526020017f536166654d6174683a207375627472616374696f6e206f766572666c6f770000815250610228565b905092915050565b600061022083836040518060400160405280601a81526020017f536166654d6174683a206469766973696f6e206279207a65726f0000000000008152506102e8565b905092915050565b60008383111582906102d5576040517f08c379a00000000000000000000000000000000000000000000000000000000081526004018080602001828103825283818151815260200191508051906020019080838360005b8381101561029a57808201518184015260208101905061027f565b50505050905090810190601f1680156102c75780820380516001836020036101000a031916815260200191505b509250505060405180910390fd5b5060008385039050809150509392505050565b60008083118290610394576040517f08c379a00000000000000000000000000000000000000000000000000000000081526004018080602001828103825283818151815260200191508051906020019080838360005b8381101561035957808201518184015260208101905061033e565b50505050905090810190601f1680156103865780820380516001836020036101000a031916815260200191505b509250505060405180910390fd5b5060008385816103a057fe5b04905080915050939250505056fea264697066735822122004097964b17309f10564d56d02bde120d5908be3f20fb25efa2db2ba881b3efd64736f6c63430006000033",
  "source": "// SPDX-License-Identifier: MIT\r\npragma solidity ^0.6.0;\r\n\r\nimport \"./SafeMath.sol\";\r\n\r\ncontract CoinFlip {\r\n    using SafeMath for uint256;\r\n    uint256 public consecutiveWins;\r\n    uint256 lastHash;\r\n    uint256 FACTOR = 57896044618658097711785492504343953926634992332820282019728792003956564819968;\r\n\r\n    constructor() public {\r\n        consecutiveWins = 0;\r\n    }\r\n\r\n    function getAddress() public view returns (address) {\r\n        return address(this);\r\n    }\r\n\r\n    function flip(bool _guess) public returns (bool) {\r\n        uint256 blockValue = uint256(blockhash(block.number.sub(1)));\r\n\r\n        if (lastHash == blockValue) {\r\n            // revert();\r\n        }\r\n\r\n        lastHash = blockValue;\r\n        uint256 coinFlip = blockValue.div(FACTOR);\r\n        bool side = coinFlip == 1 ? true : false;\r\n\r\n        if (side == _guess) {\r\n            consecutiveWins++;\r\n            return true;\r\n        } else {\r\n            consecutiveWins = 0;\r\n            return false;\r\n        }\r\n    }\r\n}\r\n",
  "sourcePath": "C:\\dev\\dapps\\playground\\contracts\\CoinFlip.sol",
  "compiler": {
    "name": "solc",
    "version": "0.6.0+commit.26b70077.Emscripten.clang"
  },
  "schemaVersion": "3.2.3",
  "updatedAt": "2020-08-14T05:56:47.247Z",
  "networkType": "ethereum",
  "devdoc": {
    "methods": {}
  },
  "userdoc": {
    "methods": {}
  }
}