{
  "contractName": "CoinFlip",
  "abi": [
    {
      "constant": true,
      "inputs": [],
      "name": "consecutiveWins",
      "outputs": [
        {
          "name": "",
          "type": "uint256"
        }
      ],
      "payable": false,
      "stateMutability": "view",
      "type": "function"
    },
    {
      "inputs": [],
      "payable": false,
      "stateMutability": "nonpayable",
      "type": "constructor"
    },
    {
      "constant": true,
      "inputs": [],
      "name": "getAddress",
      "outputs": [
        {
          "name": "",
          "type": "address"
        }
      ],
      "payable": false,
      "stateMutability": "view",
      "type": "function"
    },
    {
      "constant": false,
      "inputs": [
        {
          "name": "_guess",
          "type": "bool"
        }
      ],
      "name": "flip",
      "outputs": [
        {
          "name": "",
          "type": "bool"
        }
      ],
      "payable": false,
      "stateMutability": "nonpayable",
      "type": "function"
    }
  ],
  "bytecode": "0x60806040527f800000000000000000000000000000000000000000000000000000000000000060025534801561003457600080fd5b506000808190555061042d8061004b6000396000f3fe608060405260043610610057576000357c0100000000000000000000000000000000000000000000000000000000900463ffffffff1680631d263f671461005c57806338cc4831146100b1578063e6f334d714610108575b600080fd5b34801561006857600080fd5b506100976004803603602081101561007f57600080fd5b81019080803515159060200190929190505050610133565b604051808215151515815260200191505060405180910390f35b3480156100bd57600080fd5b506100c66101d3565b604051808273ffffffffffffffffffffffffffffffffffffffff1673ffffffffffffffffffffffffffffffffffffffff16815260200191505060405180910390f35b34801561011457600080fd5b5061011d6101db565b6040518082815260200191505060405180910390f35b60008061014a6001436101e190919063ffffffff16565b4060019004905080600154141561016057600080fd5b80600181905550600061017e6002548361022b90919063ffffffff16565b9050600060018214610191576000610194565b60015b905084151581151514156101bf576000808154809291906001019190505550600193505050506101ce565b60008081905550600093505050505b919050565b600030905090565b60005481565b600061022383836040805190810160405280601e81526020017f536166654d6174683a207375627472616374696f6e206f766572666c6f770000815250610275565b905092915050565b600061026d83836040805190810160405280601a81526020017f536166654d6174683a206469766973696f6e206279207a65726f000000000000815250610337565b905092915050565b60008383111582901515610324576040517f08c379a00000000000000000000000000000000000000000000000000000000081526004018080602001828103825283818151815260200191508051906020019080838360005b838110156102e95780820151818401526020810190506102ce565b50505050905090810190601f1680156103165780820380516001836020036101000a031916815260200191505b509250505060405180910390fd5b5060008385039050809150509392505050565b6000808311829015156103e5576040517f08c379a00000000000000000000000000000000000000000000000000000000081526004018080602001828103825283818151815260200191508051906020019080838360005b838110156103aa57808201518184015260208101905061038f565b50505050905090810190601f1680156103d75780820380516001836020036101000a031916815260200191505b509250505060405180910390fd5b50600083858115156103f357fe5b04905080915050939250505056fea165627a7a72305820ea79517a6596b1956135f9efda6e9132487d055490037a291a4d2186db1e916d0029",
  "source": "// SPDX-License-Identifier: MIT\r\npragma solidity ^0.5.0;\r\n\r\nimport \"./SafeMath.sol\";\r\n\r\ncontract CoinFlip {\r\n    using SafeMath for uint256;\r\n    uint256 public consecutiveWins;\r\n    uint256 lastHash;\r\n    uint256 FACTOR = 57896044618658097711785492504343953926634992332820282019728792003956564819968;\r\n\r\n    constructor() public {\r\n        consecutiveWins = 0;\r\n    }\r\n\r\n    function getAddress() public view returns (address) {\r\n        return address(this);\r\n    }\r\n\r\n    function flip(bool _guess) public returns (bool) {\r\n        uint256 blockValue = uint256(blockhash(block.number.sub(1)));\r\n\r\n        if (lastHash == blockValue) {\r\n            revert();\r\n        }\r\n\r\n        lastHash = blockValue;\r\n        uint256 coinFlip = blockValue.div(FACTOR);\r\n        bool side = coinFlip == 1 ? true : false;\r\n\r\n        if (side == _guess) {\r\n            consecutiveWins++;\r\n            return true;\r\n        } else {\r\n            consecutiveWins = 0;\r\n            return false;\r\n        }\r\n    }\r\n}\r\n",
  "sourcePath": "C:/dev/dapps/playground/contracts/CoinFlip.sol",
  "compiler": {
    "name": "solc",
    "version": "0.5.0+commit.1d4f565a.Emscripten.clang"
  },
  "schemaVersion": "3.2.3",
  "updatedAt": "2020-08-17T17:00:28.260Z",
  "networkType": "ethereum",
  "devdoc": {
    "methods": {}
  },
  "userdoc": {
    "methods": {}
  }
}