{
  "contractName": "CoinFlip",
  "abi": [
    {
      "inputs": [],
      "stateMutability": "nonpayable",
      "type": "constructor"
    },
    {
      "inputs": [],
      "name": "consecutiveWins",
      "outputs": [
        {
          "internalType": "uint256",
          "name": "",
          "type": "uint256"
        }
      ],
      "stateMutability": "view",
      "type": "function",
      "constant": true
    },
    {
      "inputs": [],
      "name": "owner",
      "outputs": [
        {
          "internalType": "address",
          "name": "",
          "type": "address"
        }
      ],
      "stateMutability": "view",
      "type": "function",
      "constant": true
    },
    {
      "inputs": [
        {
          "internalType": "bool",
          "name": "_guess",
          "type": "bool"
        }
      ],
      "name": "flip",
      "outputs": [
        {
          "internalType": "bool",
          "name": "",
          "type": "bool"
        }
      ],
      "stateMutability": "nonpayable",
      "type": "function"
    },
    {
      "inputs": [
        {
          "internalType": "uint256",
          "name": "_value",
          "type": "uint256"
        }
      ],
      "name": "sendTest",
      "outputs": [
        {
          "internalType": "uint256",
          "name": "",
          "type": "uint256"
        }
      ],
      "stateMutability": "nonpayable",
      "type": "function"
    },
    {
      "inputs": [],
      "name": "test",
      "outputs": [
        {
          "internalType": "address",
          "name": "",
          "type": "address"
        }
      ],
      "stateMutability": "view",
      "type": "function",
      "constant": true
    }
  ],
  "bytecode": "0x60806040527f800000000000000000000000000000000000000000000000000000000000000060045534801561003457600080fd5b506000600281905550336000806101000a81548173ffffffffffffffffffffffffffffffffffffffff021916908373ffffffffffffffffffffffffffffffffffffffff1602179055506104c18061008c6000396000f3fe608060405234801561001057600080fd5b50600436106100575760003560e01c80631d263f671461005c5780638da5cb5b146100a2578063b0be980d146100d6578063e6f334d714610118578063f8a8fd6d14610136575b600080fd5b61008a6004803603602081101561007257600080fd5b8101908080351515906020019092919050505061016a565b60405180821515815260200191505060405180910390f35b6100aa61020b565b604051808273ffffffffffffffffffffffffffffffffffffffff16815260200191505060405180910390f35b610102600480360360208110156100ec57600080fd5b810190808035906020019092919050505061022f565b6040518082815260200191505060405180910390f35b610120610242565b6040518082815260200191505060405180910390f35b61013e610248565b604051808273ffffffffffffffffffffffffffffffffffffffff16815260200191505060405180910390f35b60008061018160014361027190919063ffffffff16565b4060001c905080600354141561019657600080fd5b8060038190555060006101b4600454836102bb90919063ffffffff16565b90506000600182146101c75760006101ca565b60015b905084151581151514156101f65760026000815480929190600101919050555060019350505050610206565b6000600281905550600093505050505b919050565b60008054906101000a900473ffffffffffffffffffffffffffffffffffffffff1681565b6000816001819055506001549050919050565b60025481565b60008060009054906101000a900473ffffffffffffffffffffffffffffffffffffffff16905090565b60006102b383836040518060400160405280601e81526020017f536166654d6174683a207375627472616374696f6e206f766572666c6f770000815250610305565b905092915050565b60006102fd83836040518060400160405280601a81526020017f536166654d6174683a206469766973696f6e206279207a65726f0000000000008152506103c5565b905092915050565b60008383111582906103b2576040517f08c379a00000000000000000000000000000000000000000000000000000000081526004018080602001828103825283818151815260200191508051906020019080838360005b8381101561037757808201518184015260208101905061035c565b50505050905090810190601f1680156103a45780820380516001836020036101000a031916815260200191505b509250505060405180910390fd5b5060008385039050809150509392505050565b60008083118290610471576040517f08c379a00000000000000000000000000000000000000000000000000000000081526004018080602001828103825283818151815260200191508051906020019080838360005b8381101561043657808201518184015260208101905061041b565b50505050905090810190601f1680156104635780820380516001836020036101000a031916815260200191505b509250505060405180910390fd5b50600083858161047d57fe5b04905080915050939250505056fea2646970667358221220b2bbb2ba9924b6d19916cef5e0612e29c5a7ea6178aba35e842aa53eda83243864736f6c634300060c0033",
  "immutableReferences": {},
  "source": "// SPDX-License-Identifier: MIT\r\npragma solidity >=0.4.15 <0.7.0;\r\n\r\nimport \"./SafeMath.sol\";\r\n\r\ncontract CoinFlip {\r\n    using SafeMath for uint256;\r\n    address public owner;\r\n    uint256 value;\r\n    uint256 public consecutiveWins;\r\n    uint256 lastHash;\r\n    uint256 FACTOR = 57896044618658097711785492504343953926634992332820282019728792003956564819968;\r\n\r\n    constructor() public {\r\n        consecutiveWins = 0;\r\n        owner = msg.sender;\r\n    }\r\n\r\n    function flip(bool _guess) public returns (bool) {\r\n        uint256 blockValue = uint256(blockhash(block.number.sub(1)));\r\n\r\n        if (lastHash == blockValue) {\r\n            revert();\r\n        }\r\n\r\n        lastHash = blockValue;\r\n        uint256 coinFlip = blockValue.div(FACTOR);\r\n        bool side = coinFlip == 1 ? true : false;\r\n\r\n        if (side == _guess) {\r\n            consecutiveWins++;\r\n            return true;\r\n        } else {\r\n            consecutiveWins = 0;\r\n            return false;\r\n        }\r\n    }\r\n\r\n    function sendTest(uint256 _value) public returns (uint256) {\r\n        value = _value;\r\n        return value;\r\n    }\r\n\r\n    function test() public view returns (address) {\r\n        return (owner);\r\n    }\r\n}\r\n",
  "sourcePath": "C:\\dev\\dapps\\playground\\contracts\\CoinFlip.sol",
  "compiler": {
    "name": "solc",
    "version": "0.6.12+commit.27d51765.Emscripten.clang"
  },
  "schemaVersion": "3.2.3",
  "updatedAt": "2020-08-12T05:35:41.934Z",
  "networkType": "ethereum",
  "devdoc": {
    "kind": "dev",
    "methods": {},
    "version": 1
  },
  "userdoc": {
    "kind": "user",
    "methods": {},
    "version": 1
  }
}